:1000000000308A001728000014308400000803190B
:10001000162806308D008C018C0B0C288D0B0B28BC
:100020007B308C008C0B1228800B09280034840153
:100030001F30830592011208093C031C34288316E3
:1000400086010530831286006430940004208316F4
:1000500086018312860104309300E130940004206D
:10006000930B2D28920A1B2892011208093C031CAD
:1000700052288316860105308312860002309300D1
:10008000FA3094000420930B4028831686018312D3
:10009000860102309300FA3094000420930B4B2821
:1000A000920A352892011208093C031C6C28831619
:1000B000860105308312860004309300E1309400FD
:1000C0000420930B5E288316860183128601643018
:1000D00094000420920A532892011208093C031C40
:1000E0008628831686010A308312860064309400C5
:1000F0000420831686018312860104309300E130C8
:1001000094000420930B7F28920A6D289201120814
:10011000093C031CA428831686010A30831286003A
:1001200002309300FA3094000420930B9228831637
:1001300086018312860102309300FA309400042075
:10014000930B9D28920A872892011208093C031CF0
:10015000BE28831686010A3083128600043093007D
:10016000E13094000420930BB0288316860183129B
:100170008601643094000420920AA5281A2863009E
:02400E00F23F7F
:00000001FF
;PIC16F84A
