:1000000000308A0019280000233084008313000880
:10001000031918280130F800F701F70B0D28F80B29
:100020000C284A30F700F70B13281628800B0A28F3
:100030000034840183131F30830583161F149F141B
:100040001F159F1107309C008312A1012108093C54
:10005000031C3F2883168601FF308312860064301C
:10006000A300042083168601831286010430A200B7
:10007000E130A3000420A20B3828A10A2628A10100
:100080002108093C031C5D2883168601FF3083127A
:1000900086000230A200FA30A3000420A20B4B28F5
:1000A00083168601831286010230A200FA30A30073
:1000B0000420A20B5628A10A4028A1012108093CCE
:1000C000031C772883168601FF30831286000430D4
:1000D000A200E130A3000420A20B69288316860148
:1000E000831286016430A3000420A10A5E2825281B
:0200F0006300AB
:02400E00723FFF
:00000001FF
;PIC16F877A
