:1000000000308A00F02800000A108A100A118207C6
:1000100028340C34013406340A108A100A1182077D
:100020005534543465344D3400340A108A100A11A2
:1000300082070A344B3441345A3449342034413431
:100040005334483449344B3400340A108A100A11AE
:1000500082070A34463454344B3445344534003432
:100060002330840083130008031943280630F80066
:10007000F701F70B3928F80B38287B30F700F70B1E
:100080003F28800B362800342A0EF039F7000F3055
:10009000060577048600000006140330F700F70B0E
:1000A0004F28061000348610F03083168600831225
:1000B00006150000061400000608060E0F39AA00F7
:1000C0000610000006146428652800000608060EC5
:1000D0000F39A900061000308316860083122A0EFD
:1000E000F700F030F70577082904F8007808A90030
:1000F000A91B5428271C86102718861400000611F7
:1001000000000610280EA9000F30A9052908AA0032
:10011000442028080F39A900AA00442000340030E8
:100120008316860083128610061106100F30A30076
:1001300030200130A1002108033C031CA728033014
:10014000AA0044200530A3003020A10A9B280230D9
:10015000AA004420A1012108033C031CB82821085F
:100160000420A200A7012208A8005320A10AAB285E
:100170008A110A12FD2822080C3A0319C628063AE9
:100180000319CE28023A0319E428E928A70101300F
:10019000A80053200230A3003020EF280130A30034
:1001A0000230A400240BD528D8284030A500D92837
:1001B000A50101302302A50725088038A600A70164
:1001C0002608A8005320EF28A7011030A8005320CC
:1001D000EF280130A7002208A8005320EF280034A0
:1001E000840183131F30830583161F149F141F156A
:1001F0009F1107309C0083128F28A10121080C2039
:10020000A10AF700A200BB2004302102031DFE2832
:100210000430A100FA30A3003020A10B0A290C30D1
:10022000A200BB200230A100FA30A3003020A10BB5
:100230001429A10121081520A10AF700A200BB2062
:100240000B302102031D1A290430A100FA30A3004B
:100250003020A10B26290C30A200BB200230A100C7
:10026000FA30A3003020A10B3029A101210825205C
:10027000A10AF700A200BB2006302102031D362987
:100280000430A100FA30A3003020A10B42290C3029
:10029000A200BB200230A100FA30A3003020A10B45
:0602A0004C29FD2863005B
:02400E00723FFF
:00000001FF
;PIC16F877A
