:1000000000308A001728000013308400000803190C
:10001000162806308D008C018C0B0C288D0B0B28BC
:100020007B308C008C0B1228800B09280034840153
:100030001F308305831686018312860104309200E7
:10004000FA3093000420920B202883168601FF309B
:100050008312860004309200FA3093000420920B41
:100060002C28831686010F308312860004309200FC
:10007000FA3093000420920B382883168601F03062
:100080008312860004309200FA3093000420920B11
:0600900044281A28630059
:02400E00F23F7F
:00000001FF
;PIC16F84
