:1000000000308A001828000013308400000803190B
:10001000172801308D008C018C0B0C288D0B0B28C0
:100020004A308C008C0B12281528800B09280034CC
:1000300084011F308305831686013F3083128600BA
:1000400004309200FA3093000420920B2228831689
:10005000860106308312860004309200FA30930045
:100060000420920B2E28831686015B3083128600B3
:1000700004309200FA3093000420920B3A28831641
:1000800086014F308312860004309200FA309300CC
:100090000420920B46288316860166308312860060
:1000A00004309200FA3093000420920B52288316F9
:1000B00086016D308312860004309200FA3093007E
:1000C0000420920B5E28831686017D308312860001
:1000D00004309200FA3093000420920B6A288316B1
:1000E000860107308312860004309200FA309300B4
:1000F0000420920B7628831686017F3083128600B7
:1001000004309200FA3093000420920B8228831668
:1001100086016F308312860004309200FA3093001B
:0A0120000420920B8E281B286300B8
:02400E00F23F7F
:00000001FF
;PIC16F84A
